:020000040000FA
:060000000A128A110C280F
:10000800FE00030EF3000A08F4000A168A152E2BC8
:100018000A128A110F28F501F601F701F801831673
:100028000313D201D301D401D501D6018317B83007
:100038008400CC300A168A1571200A128A118301AD
:100048000A168A11862A83160313C700AD30B10039
:100058003108BA00D02F25304E0603193428352828
:1000680041284E08B10047088400310883178000F2
:100078000130B1003108C707D02FBB01BC012C08E3
:1000880084000A128A150A200A128A112E3A031DC0
:100098004E284F28A2283C170130B1003108AC0780
:1000A800C801C90191280A3083120313A000003047
:1000B800A10083160313490883120313A3008316B0
:1000C8000313480883120313A2000A168A15E320B3
:1000D8000A128A1183120313210883160313C90015
:1000E80083120313200883160313C8002C08840006
:1000F8000A128A150A200A128A11D03EB100FF306E
:1001080003180030B2003108C8070318C90A3208BA
:10011800C9070130B1003108AC072C0884000A1265
:100128008A150A200A128A110A128A11E7270A1266
:100138008A110318A028A1285728A828C801C9018E
:100148003C16A8283C15C428013083160313AC07B5
:10015800FF302C0784000A128A150A200A128A1115
:10016800CE00B100B2013208003A0319BC28D02FE2
:100178003108003A0319E22F663A0319A628D02F4E
:1001880000303B05B10007303C05B20031083204AD
:100198000319CF28D0288B2F3C1ED328D428D82841
:1001A8000630C8000030C9003A08840083130008EC
:1001B800CA00840A0008CB00840A0008CC00840A1C
:1001C8000008CD000430B1003108BA074D08831289
:1001D8000313A300831603134C0883120313A2000E
:1001E800831603134B0883120313A100831603130A
:1001F8004A0883120313A0000030A7000030A600AD
:100208000030A5000030A4000A168A1525250A1218
:100218008A110318102911294A29831603134D0836
:1002280083120313A300831603134C0883120313CA
:10023800A200831603134B0883120313A10083162D
:1002480003134A0883120313A0000A168A11032015
:100258000A128A1183120313230883160313CD008D
:1002680083120313220883160313CC00831203138B
:10027800210883160313CB00831203132008831667
:100288000313CA000330BB040030BC0483160313F5
:10029800C101C2014D0883120313A300831603137F
:1002A8004C0883120313A200831603134B0883120E
:1002B8000313A100831603134A0883120313A00033
:1002C8000030A7000030A6000030A5000030A400D0
:1002D8000A168A1538220A128A11031874297529F0
:1002E800A12A0310831603134C0D4D0D823EC10045
:1002F800FF3003180030C200FF30C1070318C20ADC
:10030800FF30C207033083120313A0000030A1009E
:1003180083160313420883120313A30083160313DF
:10032800410883120313A2000A168A15E3200A1251
:100338008A1183120313210883160313C200831240
:100348000313200883160313C1000A308312031312
:10035800A7000030A8008316031342088312031372
:10036800AA0083160313410883120313A9000A166F
:100378008A1110200A128A1183120313280883167F
:100388000313C20083120313270883160313C10043
:10039800C21FCF29D029D629FF30C1070318C20AA6
:1003A800FF30C2074103FF3A0A128A159D240A1238
:1003B8008A11831203134D0883160313C600831290
:1003C80003134C0883160313C500831203134B0849
:1003D80083160313C400831203134A0883160313F6
:1003E800C3004D0883120313B300831603134C088C
:1003F80083120313B200831603134B0883120313EB
:10040800B100831603134A0883120313B00083163E
:100418000313460883120313B70083160313450812
:1004280083120313B60083160313440883120313BD
:10043800B50083160313430883120313B4000A128A
:100448008A153C210A128A11831203133308831672
:100458000313C60083120313320883160313C5005F
:1004680083120313310883160313C4008312031382
:10047800300883160313C300460883120313A3002E
:1004880083160313450883120313A200831603136C
:10049800440883120313A10083160313430883122D
:1004A8000313A0003F30A7008030A6000030A5004D
:1004B8000030A4000A168A1525250A128A11031885
:1004C800662A672A702AFF3083160313C1070318A8
:1004D800C20AFF30C207A12A8316031346088312F3
:1004E8000313A30083160313450883120313A20002
:1004F80083160313440883120313A10083160313FE
:10050800430883120313A0004130A7002030A6003F
:100518000030A5000030A4000A168A1525250A1205
:100528008A11031C982A992AA12A013083160313D9
:10053800C1070318C20A0030C2078316031349080B
:10054800803AFF0080307F02031DAC2A0D3048023C
:100558000318AF2AB02AF72A8316031348080A1685
:100568008A1179200A128A11831203134D08E100B7
:100578004C08E0004B08DF004A08DE00831603132E
:100588004D0883120313E500831603134C088312E6
:100598000313E400831603134B0883120313E300C9
:1005A800831603134A0883120313E2000A168A11FA
:1005B800C0240A128A1183120313610883160313D5
:1005C800CD0083120313600883160313CC00831233
:1005D80003135F0883160313CB00831203135E080B
:1005E80083160313CA00831603134208803AFF00D8
:1005F80080307F02031D022B0A3041020318052BAD
:10060800062B652B831603134D0883120313A300CF
:10061800831603134C0883120313A20083160313D3
:100628004B0883120313A100831603134A0883128D
:100638000313A0000030A7000030A6000030A5007A
:100648000030A4000A168A1538220A128A110318E3
:100658002E2B2F2B112C831603134D0883120313F3
:10066800E000831603134C0883120313DF0083167C
:1006780003134B0883120313DE00831603134A087F
:1006880083120313DD000A168A15A9240A128A1197
:100698008312031360085F045E045D04031D552B79
:1006A800562B112C831603134208803AFF00803022
:1006B8007F02031D612B02304102031C642B652B52
:1006C800112C83160313460883120313A300831601
:1006D8000313450883120313A20083160313440867
:1006E80083120313A1008316031343088312031311
:1006F800A0004030A7008930A6007030A5005F3008
:10070800A4000A168A1525250A128A1103188D2BAA
:100718008E2B972BF73083160313C1070318C20AD1
:10072800FF30C2079F2BF83083160313C107031845
:10073800C20AFF30C20741080A128A159D240A120C
:100748008A11831203134D0883160313C6008312FC
:1007580003134C0883160313C500831203134B08B5
:1007680083160313C400831203134A088316031362
:10077800C3004D0883120313A300831603134C0808
:1007880083120313A200831603134B088312031367
:10079800A100831603134A0883120313A0008316CB
:1007A8000313460883120313A7008316031345088F
:1007B80083120313A600831603134408831203133A
:1007C800A50083160313430883120313A4000A1613
:1007D8008A1542270A128A118312031323088316E3
:1007E8000313C00083120313220883160313BF00E8
:1007F80083120313210883160313BE008312031305
:10080800200883160313BD000030CD000030CC0053
:100818000030CB000030CA00932C831603134D0818
:1008280083120313E000831603134C088312031387
:10083800DF00831603134B0883120313DE008316AD
:1008480003134A0883120313DD000A168A15A92424
:100858000A128A1183120313600883160313C00057
:10086800831203135F0883160313BF008312031355
:100878005E0883160313BE00831203135D088316F4
:100888000313BD00400883120313B3008316031338
:100898003F0883120313B200831603133E08831222
:1008A8000313B100831603133D0883120313B0002A
:1008B80000300A168A15C9250A128A1183120313F1
:1008C800330883160313A700831203133208831611
:1008D8000313A60083120313310883160313A5001C
:1008E80083120313300883160313A4004D08AB00CA
:1008F8004C08AA004B08A9004A08A8000A168A153D
:1009080088220A128A11831603132708CD002608A5
:10091800CC002508CB002408CA00C101C201CE01C1
:10092800CE0A4E08B10001300310B10DFF3E031D81
:10093800982C0310310D693E84000A128A150A208A
:100948000A128A11B2000A128A150A200A128A119A
:10095800B3000A128A150A200A128A11B4000A1270
:100968008A150A200A128A11B50035084002031DAB
:10097800C72C34083F02031DC72C33083E02031D51
:10098800C72C32083D020318CA2CCB2CCC2CD62CF1
:100998000130B1003108CE070A304E06031DD52CB0
:1009A800D62C952C03303B05B10000303C05B20035
:1009B800310832040319E12CE22C942D2D30B100BA
:1009C800470884003108831780000130B1003108DE
:1009D800C707942D4E08B10001300310B10DFF3E3A
:1009E800031DF12C0310310D693E84000A128A158B
:1009F8000A200A128A1183120313A0000A128A1508
:100A08000A200A128A11A1000A128A150A200A125B
:100A18008A11A2000A128A150A200A128A11A30052
:100A280083160313400883120313A70083160313C6
:100A38003F0883120313A600831603133E0883128C
:100A48000313A500831603133D0883120313A400A0
:100A58000A168A1541240A128A11831203132308DD
:100A680083160313C6008312031322088316031385
:100A7800C50083120313210883160313C4008312CD
:100A88000313200883160313C300003083120313D3
:100A9800A3000030A2000030A1000A30A000831695
:100AA8000313460883120313A7008316031345088C
:100AB80083120313A6008316031344088312031337
:100AC800A50083160313430883120313A4000A1610
:100AD8008A15D8220A128A1183120313230883164F
:100AE8000313C60083120313220883160313C500D9
:100AF80083120313210883160313C40083120313FC
:100B0800200883160313C3004308303EB10047088A
:100B180084003108831780000130B1003108C7070D
:100B28000130CE024E0A031D9A2D9B2DEE2CAF2DBF
:100B3800303083160313B100470884003108831747
:100B480080000130B1003108C707FF30C107031822
:100B5800C20AFF30C2074208803AFF0080307F0295
:100B6800031DB82D013041020318BB2DBC2D9C2D4F
:100B7800831603134908803AFF0080307F02031D63
:100B8800C72D09304802031CCA2DCB2DD22D0830A1
:100B980083160313B1003108CE00D82D8316031332
:100BA8004808B1003108CE004E08B100B201310842
:100BB800C8023208031CC903C9024E080319E52DEF
:100BC800E62DF12D2E30B100470884003108831737
:100BD80080000130B1003108C7074E080A128A1593
:100BE8009D240A128A11831203134D0883160313D6
:100BF800B900831203134C0883160313B800831239
:100C080003134B0883160313B700831203134A0810
:100C180083160313B600390883120313B70083162B
:100C28000313380883120313B60083160313370817
:100C380083120313B50083160313360883120313B4
:100C4800B400831603134D0883120313B3008316ED
:100C580003134C0883120313B200831603134B08C3
:100C680083120313B100831603134A088312031374
:100C7800B0000A128A153C210A128A118312031342
:100C88003308E0003208DF003108DE003008DD00FC
:100C98000A168A15A9240A128A11831203136008F6
:100CA80083160313C000831203135F08831603130C
:100CB800BF00831203135E0883160313BE0083125A
:100CC80003135D0883160313BD006B2F4E08B10094
:100CD80001300310B10DFF3E031D6D2E0310310DC1
:100CE800693E84000A128A150A200A128A118312A0
:100CF8000313A0000A128A150A200A128A11A100F9
:100D08000A128A150A200A128A11A2000A128A15E2
:100D18000A200A128A11A3008316031340088312BB
:100D28000313A700831603133F0883120313A600B7
:100D3800831603133E0883120313A50083160313B7
:100D48003D0883120313A4000A168A1541240A12C7
:100D58008A1183120313230883160313C600831210
:100D68000313220883160313C500831203132108F3
:100D780083160313C4008312031320088316031376
:100D8800C300003083120313A3000030A200003018
:100D9800A1000A30A0008316031346088312031328
:100DA800A70083160313450883120313A6008316AE
:100DB8000313440883120313A5008316031343087F
:100DC80083120313A4000A168A15D8220A128A115C
:100DD80083120313230883160313C6008312031315
:100DE800220883160313C5008312031321088316F0
:100DF8000313C40083120313200883160313C300CC
:100E08004308303EB100470884003108831780004A
:100E18000130B1003108C7074E08B1000130031096
:100E2800B10DFF3E031D132F0310310D693E8400E1
:100E38000A128A150A200A128A1183120313A000C3
:100E48000A128A150A200A128A11A1000A128A15A2
:100E58000A200A128A11A2000A128A150A200A1206
:100E68008A11A30083160313400883120313A700F3
:100E7800831603133F0883120313A6008316031374
:100E88003E0883120313A500831603133D0883123B
:100E98000313A4000A168A15D8220A128A1183128B
:100EA8000313230883160313C000831203132208B5
:100EB80083160313BF008312031321088316031339
:100EC800BE0083120313200883160313BD000130EC
:100ED800CE024E0A031D712F722F6A2E842F3030D6
:100EE800B100470884003108831780000130B10041
:100EF8003108C707FF30C8070318C90AFF30C907F8
:100F080048084904031D892F8A2F732FD02F4808BA
:100F18004904031D902F912F9F2F40083F043E0442
:100F28003D04031D982F992F9F2F0130C8070318E0
:100F3800C90A0030C9074908803A803C031DA62F1A
:100F480048084E020318A92FAA2FAB2FBA2F8316D1
:100F580003134908803AB10080303102031DB62FCF
:100F68004E0848020318B92FBA2FBA2F0330831638
:100F780003133B05B10000303C05B20031083204D0
:100F88000319C72FC82FD02F2D30B1004708840070
:100F98003108831780003C280130AC07FF302C074C
:100FA80084000A128A150A200A128A11B10031082F
:100FB800CE004E08031DE12FE22F2F28470884009A
:100FC80083178001080083120313A100A0013A309F
:100FD80021020318F02FF12FF92F30302102031CC2
:0E0FE800F62FF72FF92FA001A00A200C080009
:10100000FF1B0A2883137F1883170008840A03191B
:10101000FF0A080008308A000408840A82070034A6
:101020000034003480343F34003400342034413400
:1010300000340034C8344234003400347A34443448
:10104000003440341C34463400345034C334473404
:1010500000342434743449348034963418344B3496
:101060002034BC34BE344C3428346B346E344E34AB
:10107000F934023415345034EC347834AD346034FF
:10108000CA34F234493471340034003480343F348B
:10109000CD34CC34CC343D340A34D73423343C34CE
:1010A0006F34123483343A341734B734D13438348B
:1010B000AC34C53427343734BD3437348634353412
:1010C0009534BF34D63433347734CC342B34323483
:1010D0005F34703489343034FF34E634DB342E34FA
:1010E0000834E5343C341E3460344234A2340D34C8
:1010F00001340034003400340A3400340034003445
:101100006434003400340034E834033400340034F0
:101110001034273400340034A034863401340034D1
:10112000403442340F3400348034963498340034E0
:101130000034E134F53405340034CA349A343B3495
:10114000543465346E34733461346F3420343D3438
:10115000203425342E343134663420342034203485
:101160000034543465346D34703420343D342034CC
:1011700025342E3431346634203420342034003485
:1011800041347434753461346C3469347A34613484
:101190006E3464346F342E342E342E34003449349B
:1011A0006E3469346334693461346C3469347A344C
:0A11B00061346E3464346F3400348F
:1011C20083120313A601A31FE728E828EF28A20928
:1011D200A309A20A0319A30AA601A60AA11FF228BB
:1011E200F328F828A009A109A00A0319A10A2008D6
:1011F20021040319FD28FE282D29A501A50A0C2981
:1012020001300310A00DA10DFF3E031D0229013084
:10121200A4002408A507A11F0F29102901292108CC
:101222002302031D162920082202031C19291A2948
:1012320020292008A2022108031CA303A3020130D3
:101242000310A10CA00CFF3E031D21290130A502B1
:10125200031D2C292D291029260803193129322989
:101262003729A209A309A20A0319A30A2308A10084
:101272002208A00008008312031333088039B80043
:101282003808BD003308B8003807B9003908C30070
:10129200B21F4C294D294E294314430803195229E0
:1012A20053296229430A031D57295829602900300E
:1012B200B3000030B2000030B1000030B000B2170D
:1012C2006A290030B3000030B2000030B1000030B3
:1012D200B00037088039B8003808BD063708B800B2
:1012E2003807B9003908BE00B61F782979297A294A
:1012F2003E143E0803197E297F298E293E0A031DCA
:10130200832984298C290030B7000030B6000030D0
:10131200B5000030B400B61796290030B70000308F
:10132200B6000030B5000030B4003E0803199A2917
:101332009B29A0294308031D9F29A029A929003020
:10134200B3000030B2000030B1000030B0009C2C7D
:101352003008B8003808A00036080A168A150A2193
:101362000A128A15831203132108C9002008C80033
:101372004808B800B901BA01BB013B08C2003A08EB
:10138200C1003908C0003808BF004908B800B901D7
:10139200BA01BB013B08C7003A08C6003908C500BC
:1013A2003808C4003108B8003808A00035080A1609
:1013B2008A150A210A128A15831203132108C90009
:1013C2002008C8004808B800B901BA01BB013808B2
:1013D200BF07390803110318013E0319F129C00799
:1013E2003A0803110318013E0319F829C1073B0803
:1013F20003110318013E0319FF29C2074908B80067
:10140200B901BA01BB013808C4073908031103182E
:10141200013E03190D2AC5073A0803110318013EBC
:101422000319142AC6073B0803110318013E0319C6
:101432001B2AC7073208B8003808A00034080A1669
:101442008A150A210A128A15831203132108C90078
:101452002008C8004808B800B901BA01BB01380821
:10146200BF07390803110318013E0319392AC007BF
:101472003A0803110318013E0319402AC1073B0829
:1014820003110318013E0319472AC2074908B8008D
:10149200B901BA01BB013808C4073908031103189E
:1014A200013E0319552AC5073A0803110318013EE4
:1014B20003195C2AC6073B0803110318013E0319EE
:1014C200632AC7070830B8000310BF0DC00DC10D55
:1014D200C20DB80B652A3108B8003808A0003408DC
:1014E2000A168A150A210A128A1583120313210881
:1014F200C9002008C8004808B8004908B900BA0164
:10150200BB013808BF07390803110318013E03194C
:101512008B2AC0073A0803110318013E0319922AC5
:10152200C1073B0803110318013E0319992AC20798
:101532003008B8003808A00035080A168A150A21B2
:101542000A128A15831203132108C9002008C80051
:101552004808B8004908B900BA01BB013808BF07FA
:10156200390803110318013E0319B82AC0073A08C3
:1015720003110318013E0319BF2AC1073B080311D7
:101582000318013E0319C62AC2070830B800031027
:10159200BF0DC00DC10DC20DB80BC82A3008B8006E
:1015A2003808A00034080A168A150A210A128A1578
:1015B200831203132108C9002008C8004808B80094
:1015C2004908B900BA01BB013808BF07390803113D
:1015D2000318013E0319EE2AC0073A080311031843
:1015E200013E0319F52AC1073B0803110318013E06
:1015F2000319FC2AC2073108B8003808A0003608CF
:101602000A168A150A210A128A158312031321085F
:10161200C9002008C8004808B8004908B900BA0142
:10162200BB013808C407390803110318013E031926
:101632001B2BC5073A0803110318013E0319222B7D
:10164200C6073B0803110318013E0319292BC707DC
:101652003208B8003808A00035080A168A150A218F
:101662000A128A15831203132108C9002008C80030
:101672004808B8004908B900BA01BB013808C407D4
:10168200390803110318013E0319482BC5073A080C
:1016920003110318013E03194F2BC6073B08031120
:1016A2000318013E0319562BC7073208B800380841
:1016B200A00036080A168A150A210A128A15831210
:1016C20003132108C9002008C8004808B8004908C7
:1016D200B900BA01BB0108300310B80DB90DBA0D3B
:1016E200BB0DFF3E031D6D2B3808C40739080311DB
:1016F2000318013E03197E2BC5073A08031103188C
:10170200013E0319852BC6073B0803110318013E4E
:1017120003198C2BC7073F08B8004008B9004108DD
:10172200BA004208BB0018300310BB0CBA0CB90C4B
:10173200B80CFF3E031D952B3808C4073908031166
:101742000318013E0319A62BC5073A080311031813
:10175200013E0319AD2BC6073B0803110318013ED6
:101762000319B42BC7070830B8000310BF0DC00D12
:10177200C10DC20DB80BB62B43083E07B800B90124
:10178200B90D3808823EC80039080318013EFF3EF1
:10179200C900E82B0130B8000310C40DC50DC60DF9
:1017A200C70DB80BCD2BC21FD72BD82BD92B441466
:1017B2000130B8000310BF0DC00DC10DC20DB80B32
:1017C200DB2BFF30C8070318C90AFF30C907C61F41
:1017D200EB2BEC2BCB2BBE01C21FF02BF12B0D2CD4
:1017E200FF303F05B800FF304005B900FF3041052A
:1017F200BA007F304205BB003B083A043904380482
:101802000319042C052C082CBE01BE0A0D2C441C05
:101812000B2C0C2C0D2C052C3E080319112C122C10
:10182200432C0130C407003003180130C5070030D3
:1018320003180130C607003003180130C707471CE0
:10184200232C242C432C4408B8004508B900460830
:10185200BA004708BB000130BC003B0DBB0CBA0C00
:10186200B90CB80CBC0B2E2C3B08C7003A08C600BA
:101872003908C5003808C4000130C8070318C90A6E
:101882000030C9074908803AFF0080307F02031DFB
:101892004C2CFF304802031C4F2C502C5B2C7F3009
:1018A20083120313C7008030C6000030C500003029
:1018B200C400902C831203134908803AFF00803041
:1018C2007F02031D662C013048020318692C6A2C22
:1018D200762C003083120313C7000030C60000309C
:1018E200C5000030C400BD01902C831203134808C8
:1018F200B8003808C300FF30C405FF30C5057F308B
:10190200C6050030C705431C872C882C892CC617B6
:101912004308B8000310380CB9003908C7003D0865
:10192200B8003808C7044708B3004608B2004508A3
:10193200B1004408B000080083120313DC00DC1F6E
:10194200A32CA42C532EDC09DC0A5C08803A123E3C
:10195200031CAC2CAD2C972D0A30A7000030A80038
:101962005C08A200A301A21BA3036430A000003004
:10197200A1000A128A15E1200A128A1583120313A2
:101982002108AA002008A9000A168A1110200A12AA
:101992008A15831203132708CE0001300310CE0DDF
:1019A200FF3E031DCF2C03104E0D593E84000A1238
:1019B2008A150A200A128A15CF000A128A150A20ED
:1019C2000A128A15D0000A128A150A200A128A15EA
:1019D200D1000A128A150A200A128A15D200520868
:1019E200B3005108B2005008B1004F08B000643093
:1019F200A7000030A8005C08A900AA01A91BAA033D
:101A02000A168A1110200A128A1583120313270854
:101A1200D30001300310D30DFF3E031D0B2D031025
:101A2200530D7D3E84000A128A150A200A128A1575
:101A3200D4000A128A150A200A128A15D5000A123F
:101A42008A150A200A128A15D6000A128A150A2055
:101A52000A128A15D7005708B7005608B60055086B
:101A6200B5005408B4000A128A153C210A128A15DC
:101A7200831203133308DB003208DA003108D9007D
:101A82003008D8000A30A0000030A1005C08A20093
:101A9200A301A21BA3030A128A15E1200A128A15C6
:101AA200831203132008CE0001300310CE0DFF3E37
:101AB200031D562D03104E0D353E84000A128A1561
:101AC2000A200A128A15CF000A128A150A200A125F
:101AD2008A15D0000A128A150A200A128A15D10024
:101AE2000A128A150A200A128A15D2005208B30075
:101AF2005108B2005008B1004F08B0005B08B700AF
:101B02005A08B6005908B5005808B4000A128A15D6
:101B12003C210A128A15831203133308CD003208BE
:101B2200CC003108CB003008CA00FF2F5C08803A95
:101B3200753E031C9D2D9E2D262E0A30A0000030DE
:101B4200A1005C08A200A301A21BA3030A128A152A
:101B5200E1200A128A15831203132008CE000130F5
:101B62000310CE0DFF3E031DB12D03104E0D353E69
:101B720084000A128A150A200A128A15CF000A1254
:101B82008A150A200A128A15D0000A128A150A201A
:101B92000A128A15D1000A128A150A200A128A1517
:101BA200D2005208B3005108B2005008B1004F08E9
:101BB200B0000A30A7000030A8005C08A900AA0102
:101BC200A91BAA030A168A1110200A128A15831267
:101BD20003132708D30001300310D30DFF3E031D6A
:101BE200ED2D0310530D593E84000A128A150A2066
:101BF2000A128A15D4000A128A150A200A128A15B4
:101C0200D5000A128A150A200A128A15D6000A126B
:101C12008A150A200A128A15D7005708B7005608F3
:101C2200B6005508B5005408B4000A128A153C21C2
:101C32000A128A15831203133308CD003208CC002E
:101C42003108CB003008CA00FF2F5C08CE000130FB
:101C52000310CE0DFF3E031D292E03104E0D353EFF
:101C620084000A128A150A200A128A15CF000A1263
:101C72008A150A200A128A15D0000A128A150A2029
:101C82000A128A15D1000A128A150A200A128A1526
:101C9200D2005208CD005108CC005008CB004F08AA
:101CA200CA00FF2F5C08803A123E031C592E5A2E9E
:101CB200442F0A30A7000030A8005C08A200A3014C
:101CC200A21BA3036430A0000030A1000A128A15EF
:101CD200E1200A128A15831203132108AA002008A0
:101CE200A9000A168A1110200A128A1583120313F8
:101CF2002708CE0001300310CE0DFF3E031D7C2EBF
:101D020003104E0D253E84000A128A150A200A127B
:101D12008A15CF000A128A150A200A128A15D000E3
:101D22000A128A150A200A128A15D1000A128A1585
:101D32000A200A128A15D2005208B3005108B200D2
:101D42005008B1004F08B0006430A7000030A8006E
:101D52005C08A900AA01A91BAA030A168A1110206D
:101D62000A128A15831203132708D30001300310C5
:101D7200D30DFF3E031DB82E0310530D493E8400C0
:101D82000A128A150A200A128A15D4000A128A1522
:101D92000A200A128A15D5000A128A150A200A1286
:101DA2008A15D6000A128A150A200A128A15D70045
:101DB2005708B7005608B6005508B5005408B400D5
:101DC2000A128A153C210A128A1583120313330858
:101DD200DB003208DA003108D9003008D8000A30B6
:101DE200A0000030A1005C08A200A301A21BA30373
:101DF2000A128A15E1200A128A1583120313200897
:101E0200CE0001300310CE0DFF3E031D032F031041
:101E12004E0D013E84000A128A150A200A128A1502
:101E2200CF000A128A150A200A128A15D0000A1255
:101E32008A150A200A128A15D1000A128A150A2066
:101E42000A128A15D2005208B3005108B200500893
:101E5200B1004F08B0005B08B7005A08B600590835
:101E6200B5005808B4000A128A153C210A128A15D4
:101E7200831203133308CD003208CC003108CB00A3
:101E82003008CA00FF2F5C08803A753E031C4A2FB7
:101E92004B2FD32F0A30A0000030A1005C08A20013
:101EA200A301A21BA3030A128A15E1200A128A15B2
:101EB200831203132008CE0001300310CE0DFF3E23
:101EC200031D5E2F03104E0D013E84000A128A1577
:101ED2000A200A128A15CF000A128A150A200A124B
:101EE2008A15D0000A128A150A200A128A15D10010
:101EF2000A128A150A200A128A15D2005208B30061
:101F02005108B2005008B1004F08B0000A30A700D3
:101F12000030A8005C08A900AA01A91BAA030A169E
:101F22008A1110200A128A15831203132708D3007C
:101F320001300310D30DFF3E031D9A2F0310530DE2
:101F4200253E84000A128A150A200A128A15D40034
:101F52000A128A150A200A128A15D5000A128A154F
:101F62000A200A128A15D6000A128A150A200A12B3
:101F72008A15D7005708B7005608B6005508B500AD
:101F82005408B4000A128A153C210A128A158312D7
:101F920003133308CD003208CC003108CB003008DF
:101FA200CA00FF2F5C08CE0001300310CE0DFF3EA9
:101FB200031DD62F03104E0D013E84000A128A150E
:101FC2000A200A128A15CF000A128A150A200A125A
:101FD2008A15D0000A128A150A200A128A15D1001F
:101FE2000A128A150A200A128A15D2005208CD0056
:0E1FF2005108CC005008CB004F08CA00080070
:1020060083120313230822042104200403190C2835
:102016000D280F288030A306080083120313AD0194
:10202600A81F162817281E28A709A809A70A0319F2
:10203600A80AAD01AD0AAA1F212822282B28A90922
:10204600AA09A90A0319AA0A0130AB002B08AD0692
:10205600AE01AF01270828040319322833286A285D
:10206600AC01AC0A412801300310A70DA80DFF3EB4
:10207600031D37280130AB002B08AC07A81F4428E6
:102086004528362801300310AE0DAF0DFF3E031D67
:10209600462828082A02031D522827082902031C5D
:1020A600552856285D282708A9022808031CAA03D4
:1020B600AA022E1401300310A80CA70CFF3E031D24
:1020C6005E280130AC02031D69286A2845282D08C0
:1020D60003196E286F287428AE09AF09AE0A0319D2
:1020E600AF0A2F08A8002E08A700080083120313C2
:1020F600DD006E305D02031C8128822891293F3065
:10210600B3000030B2000030B1000030B0006430DF
:10211600A6000030A7005D08CE00CF014E08A8003B
:102126004F08A9000A168A15F2210A168A11831287
:1021360003132608D00001300310D00DFF3E031D07
:102146009F280310500D7D3E84000A128A150A202E
:102156000A168A11D1000A128A150A200A168A114D
:10216600D2000A128A150A200A168A11D3000A1208
:102176008A150A200A168A11D4005408B700530893
:10218600B6005208B5005108B4000A128A153C215F
:102196000A168A11831203133308DC003208DB00A7
:1021A6003108DA003008D9000A30A6000030A7004E
:1021B6005D08CE00CF014E08A2004F08A300643090
:1021C600A0000030A1000A168A1533210A168A11CA
:1021D600831203132108A9002008A8000A168A15ED
:1021E600F2210A168A11831203132608D000013041
:1021F6000310D00DFF3E031DFB280310500D593E62
:1022060084000A128A150A200A168A11D1000A12B7
:102216008A150A200A168A11D2000A128A150A207D
:102226000A168A11D3000A128A150A200A168A117A
:10223600D4005408B3005308B2005208B100510844
:10224600B0005C08B7005B08B6005A08B50059082C
:10225600B4000A128A153C210A168A118312031346
:102266003308D8003208D7003108D6003008D50028
:102276000A30A0000030A1005D08CE00CF014E0854
:10228600A2004F08A3000A168A1533210A168A11DE
:10229600831203132008D00001300310D00DFF3E37
:1022A600031D50290310500D353E84000A128A156D
:1022B6000A200A168A11D1000A128A150A200A165D
:1022C6008A11D2000A128A150A200A168A11D30028
:1022D6000A128A150A200A168A11D4005408B30075
:1022E6005308B2005208B1005108B0005808B700B0
:1022F6005708B6005608B5005508B4000A128A15E4
:102306003C210A168A11831203133308CD003208C2
:10231600CC003108CB003008CA00852A0B305D029C
:10232600031C96299729422A3F30B3000030B20099
:102336000030B1000030B0000A30A6000030A7001F
:102346005D08CE00CF014E08A8004F08A9000A1666
:102356008A15F2210A168A11831203132608D00061
:1023660001300310D00DFF3E031DB4290310500D9C
:10237600593E84000A128A150A200A168A11D100CB
:102386000A128A150A200A168A11D2000A128A151A
:102396000A200A168A11D3000A128A150A200A167A
:1023A6008A11D4005408B7005308B6005208B50085
:1023B6005108B4000A128A153C210A168A118312A2
:1023C60003133308DC003208DB003108DA0030087A
:1023D600D9000A30A0000030A1005D08CE00CF0170
:1023E6004E08A2004F08A3000A168A1533210A16C2
:1023F6008A11831203132008D00001300310D00D78
:10240600FF3E031D012A0310500D353E84000A12BB
:102416008A150A200A168A11D1000A128A150A207C
:102426000A168A11D2000A128A150A200A168A1179
:10243600D3000A128A150A200A168A11D4005408F3
:10244600B3005308B2005208B1005108B0005C084E
:10245600B7005B08B6005A08B5005908B4000A125E
:102466008A153C210A168A11831203133308CD00FC
:102476003208CC003108CB003008CA00852A3F302C
:10248600B3000030B2000030B1000030B0005D088B
:10249600CE0001300310CE0DFF3E031D4D2A031062
:1024A6004E0D353E84000A128A150A200A168A1134
:1024B600CF000A128A150A200A168A11D0000A12BB
:1024C6008A150A200A168A11D1000A128A150A20CC
:1024D6000A168A11D2005208B7005108B6005008F1
:1024E600B5004F08B4000A128A153C210A168A1153
:1024F600831203133308CD003208CC003108CB0019
:102506003008CA00080083160313811301138112D1
:1025160081150108F839063881008B170B178B12C5
:102526000B120B110C130C14831203130C10303006
:10253600900490101014DC308E000B308F009F0139
:102546008030831603139F009E01831203139E019E
:10255600FF30831603138500860188018312031357
:102566000610861008100A168A15DE230A168A1126
:102576006400831603174A034B04031DC32AC42AA7
:10258600F02A0A168A1579200A168A11831203136D
:10259600A401A40A01300A168A1586230A168A118E
:1025A600B13083120313A5008030A6000A168A15DF
:1025B600AC210A168A11043083160313D100CF30DA
:1025C600D0000130CF00CF0BE62AD00BE62AD10B84
:1025D600E62A83160317CA01CB014908831203139F
:1025E600AA0083160317480883120313A9000230B2
:1025F600A7000030A8000A168A1110200A168A11B0
:10260600831203132708FF3E83160313CF0083129A
:10261600031328080318013EFF3E83160313D00058
:102626004F0883120313B000831603135008831256
:102636000313B1000030B11BFF30B200B30001300C
:102646000A168A15C9250A168A1183120313330836
:1026560083160317C3008312031332088316031766
:10266600C20083120313310883160317C1008312B5
:102676000313300883160317C0004608831203139A
:10268600B00083160317470883120313B100003006
:10269600B11BFF30B200B30001300A168A15C925F6
:1026A6000A168A1183120313330883160317BF0011
:1026B60083120313320883160317BE008312031313
:1026C600310883160317BD008312031330088316DF
:1026D6000317BC00BF3083120313A3008030A2008F
:1026E6000030A1000030A0008316031743088312B0
:1026F6000313A70083160317420883120313A600C9
:1027060083160317410883120313A50083160317C4
:10271600400883120313A4000A168A1525250A16F3
:102726008A11031C972B982BE52B00308312031379
:10273600A3000030A2000030A1000030A0008316E4
:1027460003173F0883120313A700831603173E08D7
:1027560083120313A600831603173D08831203137F
:10276600A500831603173C0883120313A4000A1658
:102776008A1525250A168A11031CC22BC32BE52BA5
:10278600C03083160313CF004F08AC00A4300A12E2
:102796008A1127200A168A1183120313A401A40A98
:1027A60001300A168A1586230A168A11A430831266
:1027B6000313A5000130A6000A168A15AC210A16D5
:1027C6008A11BB2AA23083160313CF004F08AC0030
:1027D60083160317430883160313B00083160317E3
:1027E600420883160313AF008316031741088316A6
:1027F6000313AE0083160317400883160313AD00B8
:1028060090300A128A1127200A168A11831203139E
:10281600A401A40A01300A168A1586230A168A110B
:10282600903083120313A5000130A6000A168A15FC
:10283600AC210A168A11913083160313CF004F0874
:10284600AC00831603173F0883160313B0008316E4
:1028560003173E0883160313AF00831603173D08BC
:1028660083160313AE00831603173C08831603135F
:10287600AD00A4300A128A1127200A168A11831283
:102886000313A401A40A02300A168A1586230A161F
:102896008A11A43083120313A5000130A6000A167C
:1028A6008A15AC210A168A11831603174408831267
:1028B6000313B00083160317450883120313B100F0
:1028C6000030B11BFF30B200B30001300A168A1582
:1028D600C9250A168A1183120313330883160317B0
:1028E600BB0083120313320883160317BA00831240
:1028F6000313310883160317B90083120313300834
:1029060083160317B800433083120313A3007A30EB
:10291600A2000030A1000030A000831603173B0878
:1029260083120313A700831603173A0883120313AF
:10293600A60083160317390883120313A50083160E
:102946000317380883120313A4000A168A152525CF
:102956000A168A110318B02CB12CB72C8312031354
:10296600061486100810BB2A831203130610861459
:102976000814BB2A0A128A110C2883120313610851
:102986008039E600660883160313A000831203133A
:102996006108E6006607E700670883160313A200CE
:1029A60083120313E01FD82CD92CDC2C83160313B7
:1029B60022148316031322080319E22CE32CF62CA7
:1029C600220A031DE72CE82CF22C00308312031395
:1029D600E1000030E0000030DF000030DE0083124E
:1029E600E017E101002D003083120313E1000030EF
:1029F600E0000030DF000030DE0065088039E600C8
:102A0600660883160313A1002108200603190C2D5E
:102A16000D2D0E2D2017831203136508E600660799
:102A2600E700670883160313A10083120313E41F4C
:102A36001D2D1E2D212D831603132114831603131A
:102A460021080319272D282D3B2D210A031D2C2D86
:102A56002D2D372D003083120313E5000030E400DE
:102A66000030E3000030E2008312E417E501452D53
:102A7600003083120313E5000030E4000030E30069
:102A86000030E200831603132208210203184C2D9E
:102A96004D2DC32D201F502D512D592D80308312C1
:102AA6000313E600660883160313A00622088312A2
:102AB6000313E600660883160313A3002108831296
:102AC6000313E600660883160313A2002308831285
:102AD6000313E600660883160313A100831203138B
:102AE6005E08E600660883160313A3008312031329
:102AF6006208E6006608DE008316031323088312C5
:102B06000313E6006608E2005F08E600660883161F
:102B16000313A300831203136308E6006608DF00AD
:102B260083160313230883120313E6006608E300E3
:102B36006008E600660883160313A30083120313D6
:102B46006408E6006608E000831603132308831270
:102B56000313E6006608E4006108E60066088316CB
:102B66000313A300831203136508E6006608E10059
:102B760083160313230883120313E6006608E50091
:102B860083160313A301210883120313E600E7014A
:102B96006708E900831603132208831203136602EB
:102BA600E800031CE9036908803AFF0080307F02D1
:102BB600031DDF2D1A306802031CE22DE32D352E8E
:102BC60083120313610860045F045E04031DEC2D89
:102BD600EE2D0130EF2D0030E60066088316031354
:102BE600A300003083120313E1000030E000003040
:102BF600DF000030DE00831603132108831203135F
:102C0600E600660883160313A2003D2E231C0C2E35
:102C16000D2E1A2E230883120313E6000310660CEA
:102C26000138E700670883160313A3001C2E031060
:102C3600A30C831203135E1C212E222E252E83162F
:102C46000313A31701308312E600610DE10CE00CBB
:102C5600DF0CDE0CE60B282E0130E6006608831634
:102C66000313A2078316031321082202031C3C2E1A
:102C76003D2E092E201B402E412E9D2E2208031D7F
:102C8600452E462E512E003083120313E1000030EC
:102C9600E0000030DF000030DE00FF2F8312031358
:102CA6006208DE07630803110318013E03195C2E50
:102CB600DF07640803110318013E0319632EE007BA
:102CC600650803110318013E03196A2EE107611C0A
:102CD6006D2E6E2E632F83160313231C732E742EF4
:102CE600812E230883120313E6000310660C0138B5
:102CF600E700670883160313A300832E0310A30CB3
:102D0600831203135E1C882E892E8C2E83160313C2
:102D1600A31701308312E600610DE10CE00CDF0C15
:102D2600DE0CE60B8F2E0130E600660883160313D1
:102D3600A207632F831203136108803AFF00650818
:102D4600803A7F02031DB12E64086002031DB12E76
:102D560063085F02031DB12E62085E020318B42EDB
:102D6600B52E112FFF30E600FF30E700FF30E800F8
:102D7600FF30E9006208EA006308EB006408EC0033
:102D86006508ED005E08EA025F08031C5F0FCC2EA3
:102D9600CD2EEB026008031C600FD22ED32EEC0260
:102DA6006108031C610FD82ED92EED026A08E607CA
:102DB6006B0803186B0FE02EE12EE7076C0803186B
:102DC6006C0FE62EE72EE8076D0803186D0AE90773
:102DD6006908E1006808E0006708DF006608DE00B1
:102DE6008030E600660883160313A006A309A30A2B
:102DF6002308031DFF2E002F1F2F013083120313FC
:102E0600DE07003003180130DF07003003180130F9
:102E1600E007003003180130E1071F2F6208DE02C9
:102E26006308031C630FDF026408031C640FE002DF
:102E36006508031C650FE1028312610860045F04E4
:102E46005E04031D272F282F5E2F831603132308E6
:102E5600031D2E2F2F2F5E2F003083120313E10048
:102E66000030E0000030DF000030DE00FF2F0130D0
:102E7600E6000310DE0DDF0DE00DE10DE60B3C2F45
:102E860083160313A31F482F492F4C2F83120313B6
:102E96005E1483160313231C512F522F552F031430
:102EA600A30D572F0310A30D220803195B2F5C2FC8
:102EB6005E2F0130A2028312E01F622F632F3A2F8A
:102EC60083160313A101A31F692F6A2F7C2F2308E2
:102ED6007F3903196F2F702F752F83160313A101E6
:102EE600A10A7C2F831203135E1C7A2F7B2F7C2F63
:102EF600702F8316031321080319822F832FBF2FE8
:102F0600013083120313DE07003003180130DF0798
:102F1600003003180130E007003003180130E107E4
:102F2600611C962F972FBF2F5E08E6005F08E7000B
:102F36006008E8006108E9000130EA00690DE90C63
:102F4600E80CE70CE60CEA0BA12F6908E10068081B
:102F5600E0006708DF006608DE0083160313220A16
:102F66000319B62FB72FBF2F013083120313E600C4
:102F7600660883160313A20783160313220A03198E
:102F8600C52FC62FCB2F2208031DCA2FCB2FDD2F0F
:102F9600003083120313E1000030E0000030DF0050
:102FA6000030DE00831603132208031DDB2FDC2FFF
:102FB600DD2FA001221CE02FE12FE52F8312031342
:102FC600E017EB2F7F3083120313E6006608E00557
:102FD60083160313220883120313E6000310660CFC
:102FE600E7006708E10083160313A01FFB2FFC2FE1
:0A2FF600FF2F83120313E1170800F8
:1030E20064008001840A040603190034040672286D
:1030F20000300A168A1586200A168A1501300A1629
:103102008A1586200A168A15080083120313A30063
:10311200081123080A168A15A2200A168A15831294
:10312200031388151A3083120313A200F730A1008B
:10313200A10B9928A20B99289E28831203138811A8
:10314200080083120313A000201CA828A928AB287A
:103152000816AC280812A01CAF28B028B22888167E
:10316200B3288812201DB628B728B9280817BA280C
:103172000813A01DBD28BE28C0288817C12888139F
:1031820008007008F20002300310F20DFF3E031D2A
:10319200C5280310720D831203139F001F141030F1
:1031A200F200F20BD2280000831203131F151F191D
:1031B200DB28DC28D8281E08F100831603131E081A
:1031C200F000080083120313A401A501201CEA28C1
:1031D200EB28F1282208A4070318A50A2308A5074B
:1031E20001300310A20DA30DFF3E031DF228013092
:1031F2000310A10CA00CFF3E031DF9282008210496
:10320200031D04290529E7282508A1002408A00098
:10321200080083120313A800A401A5012008A2003C
:10322200A3012208A6002308A700281C19291A298D
:1032320020292608A4070318A50A2708A507013094
:103242000310A60DA70DFF3E031D21290310A80C94
:103252002808031D2D292E2916292508A100240836
:10326200A0000800831203132008210403193A293D
:103272003B296A29A501A50A492901300310A00D9D
:10328200A10DFF3E031D3F290130A4002408A5071C
:10329200A11F4C294D293E2921082302031D532930
:1032A20020082202031C562957295D292008A20260
:1032B2002108031CA303A30201300310A10CA00CDC
:1032C200FF3E031D5E290130A502031D69296A29FB
:1032D2004D292308A1002208A0000800831203132D
:1032E200A40024080F39A1002108A2002408F03903
:1032F200A1002108A30008152308A100043003102F
:10330200A10CFF3E031D802921080A168A15A2205E
:103312000A168A1583120313881541308312031388
:10332200A100A10B92299529831203138811220867
:103332000A168A15A2200A168A1583120313881503
:10334200413083120313A100A10BA529A8298312DE
:1033520003138811080083120313AA01AB01D529B4
:103362002A082507A8002608A7000318A70AAA1FEB
:10337200BB29A703831203132708A9002908FF000A
:10338200280884000A128A1500200A168A150A16CD
:103392008A156F210A168A15013083120313AA07B0
:1033A2000318AB0A0030AB072A082507A800260835
:1033B200A7000318A70AAA1FDF29A7038312031372
:1033C2002708A9002908FF00280884000A128A1584
:1033D20000200A168A15003A031DF029F129B129A5
:1033E200080083120313AB01AC012608270403195A
:1033F200FB29FC29332AAD01AD0A0A2A0130031048
:10340200A60DA70DFF3E031D002A0130AA002A08BF
:10341200AD07A71F0D2A0E2AFF2901300310AB0D9D
:10342200AC0DFF3E031D0F2A27082902031D1B2A8C
:1034320026082802031C1E2A1F2A262A2608A8025A
:103442002708031CA903A9022B1401300310A70C9F
:10345200A60CFF3E031D272A0130AD02031D322AAE
:10346200332A0E2A2C08A7002B08A60008000030D9
:10347200831203132005A80000302105A900803023
:103482002205AA007F302305AB002B082A04290459
:103492002804031D4D2A4E2A562A0030A30000306C
:1034A200A2000030A1000030A00000302405A800D6
:1034B20000302505A90080302605AA007F302705A7
:1034C200AB002B082A0429042804031D692A6A2A4E
:1034D200722A0030A7000030A6000030A50000309C
:1034E200A40027082306031D802A26082206031D9E
:1034F200802A25082106031D802A24082006031994
:10350200832A842A862A0310872A0314080080301B
:1035120083160313A7062B0883120313E1008316F5
:1035220003132A0883120313E000831603132908E6
:1035320083120313DF008316031328088312031375
:10354200DE0083160313270883120313E500831694
:103552000313260883120313E400831603132508BA
:1035620083120313E3008316031324088312031345
:10357200E2000A168A11C0240A168A15831203135E
:10358200610883160313A7008312031360088316CE
:103592000313A600831203135F0883160313A50007
:1035A200831203135E0883160313A4000800831218
:1035B200031323082204210420040319E12AE22A26
:1035C200252BA901A90AF22A0130A8000310A00D97
:1035D200A10DA20DA30DA80BE72A0130A80028080F
:1035E200A907A31FF52AF62AE52A23082702031DA5
:1035F200042B22082602031D042B21082502031D89
:10360200042B20082402031C072B082B162B20084E
:10361200A4022108031C210FA5022208031C220F69
:10362200A6022308031C230FA70201300310A30CD8
:10363200A20CA10CA00CFF3E031D172B0130A90206
:10364200031D242B252BF62A2708A3002608A200F7
:103652002508A1002408A000080064008B1383122F
:1036620003130C1C352B362B7D2B05307506760487
:10367200031D3C2B3D2B702B0130F0000030F1007C
:103682000A168A15C2200A168A15710883160317AC
:10369200C7007008C6000230F0000030F1000A16C0
:1036A2008A15C2200A168A15710883160317C900E3
:1036B2007008C8000030F000F1000A168A15C22016
:1036C2000A168A15710883160317C5007008C4000C
:1036D200F501F6010130CA000030CB00762B013033
:1036E200F5070318F60A0030F607DC3083120313DD
:1036F2008E000B308F000C1064008B1774088A0048
:10370200730E8300FE0E7E0E090083120313A700C0
:103712002703031D8D2B8E2BB32B24087F3EA50080
:103722002508AA002A08A50004300310A50CFF3EB4
:10373200031D962B2508A6002608A8002A080F3983
:10374200A5002508A90028080A168A1586200A1647
:103752008A158312031329080A168A1586200A1667
:103762008A15DD2B02302706031DB82BB92BDD2B62
:103772002408BF3EA5002508AA002A08A500043097
:103782000310A50CFF3E031DC12B2508A600260829
:10379200A8002A080F39A5002508A90028080A163A
:1037A2008A1586200A168A158312031329080A1617
:1037B2008A1586200A168A15080000300A168A150C
:1037C200A2200A168A15823083120313A500DD3067
:1037D200A400A40BEA2BA50BEA2B03300A168A15C8
:1037E20086200A168A15213083120313A50075302C
:1037F200A400A40BFA2BA50BFA2BFF2B03300A16FD
:103802008A1586200A168A15483083120313A500EA
:103812006B30A400A40B0B2CA50B0B2C102C03302B
:103822000A168A1586200A168A1502300A168A1581
:1038320086200A168A1502300A168A1586200A166A
:103842008A1508300A168A1586200A168A1500304B
:103852000A168A1586200A168A150C300A168A1547
:1038620086200A168A1500300A168A1586200A163C
:103872008A1506300A168A1586200A168A15080045
:10388200003083120313AC000030AB000030AA00FA
:103892000030A90023082204210420040319522C19
:1038A200532CA02CAD01AD0A632C0130A8000310EB
:1038B200A00DA10DA20DA30DA80B582C0130A8003C
:1038C2002808AD07A31F662C672C562C0130A800D0
:1038D2000310A90DAA0DAB0DAC0DA80B692C230882
:1038E2002702031D7E2C22082602031D7E2C21089E
:1038F2002502031D7E2C20082402031C812C822C0D
:10390200912C2008A4022108031C210FA5022208E1
:10391200031C220FA6022308031C230FA70229144B
:1039220001300310A30CA20CA10CA00CFF3E031D3E
:10393200922C0130AD02031D9F2CA02C672C2C0869
:10394200A3002B08A2002A08A1002908A000080051
:103952000310831203135F0D600DE1006108E7009D
:103962006708031DB52CB62CBF2C0030E0000030D8
:10397200DF000030DE000030DD00242D5D08E100B4
:103982005E08E2005F08E3006008E4001F300310F5
:10399200E40CE30CE20CE10CFF3E031DC82C6108B1
:1039A200E5006508E600DF17FF30DD05FF30DE05C4
:1039B200FF30DF050030E0059630E702E71FE22C1A
:1039C200E32CFD2C6708803A973E0318E92CEA2C79
:1039D200EB2CB62C01300310E00CDF0CDE0CDD0CFE
:1039E200FF3E031DEC2C0130E1006108E707031DD7
:1039F200FB2CFC2CEB2C142D20306702031C022D17
:103A0200032D0F2DB62C0130E1000310DD0DDE0D6C
:103A1200DF0DE00DE10B062D0130E7026708031D03
:103A2200132D142D042D66080319182D192D242D7C
:103A3200DD09DE09DF09E009DD0A0319DE0A0319DF
:103A4200DF0A0319E00A080000308312031320057D
:103A5200A80000302105A90080302205AA007F308D
:103A62002305AB002B082A0429042804031D3A2D40
:103A72003B2D432D0030A3000030A2000030A100F6
:103A82000030A00000302405A80000302505A90060
:103A920080302605AA007F302705AB002B082A04B8
:103AA20029042804031D562D572D5F2D0030A70031
:103AB2000030A6000030A5000030A400A31F622D34
:103AC200632D872D0030A8000030A9000030AA0025
:103AD2008030AB002008A8022108031C210F722DA0
:103AE200732DA9022208031C220F782D792DAA0218
:103AF2002308031C230F7E2D7F2DAB022B08A3006E
:103B02002A08A2002908A1002808A000A71F8A2DC0
:103B12008B2DAF2D0030A8000030A9000030AA0084
:103B22008030AB002408A8022508031C250F9A2D1B
:103B32009B2DA9022608031C260FA02DA12DAA0247
:103B42002708031C270FA62DA72DAB022B08A700C1
:103B52002A08A6002908A5002808A4008030A30688
:103B62008030A70627082302031DC12D2608220242
:103B7200031DC12D25082102031DC12D2408200289
:103B82000318C42DC52DC72D0310C82D031408001A
:103B920083120313B80038080319D02DD12DE52D57
:103BA200B31FD42DD52DE52D3009BA003109BB0044
:103BB2003209BC003309BD00BA0A0319BB0A031952
:103BC200BC0A0319BD0AED2D3308BD003208BC0042
:103BD2003108BB003008BA00330832043104300423
:103BE200031DF42DF52DFE2D0030B3000030B20080
:103BF2000030B1000030B000842E9630B40034089A
:103C0200B900102E0130B4003408B9070130031096
:103C1200BD0CBC0CBB0CBA0CFF3E031D082EFE30C3
:103C22003D05031D152E162E032E322E0130B40033
:103C32003408B9070130BA07003003180130BB0756
:103C4200003003180130BC07003003180130BD07F3
:103C520001300310BD0CBC0CBB0CBA0CFF3E031DA3
:103C62002A2EFF303D05031D372E382E172E442EE7
:103C72000130B9020130B4000310BA0DBB0DBC0D06
:103C8200BD0DB40B3D2EBC1B472E482E4E2E0230CE
:103C9200390203184D2E4E2E392E3918512E522E1E
:103CA2005A2EFF30BA05FF30BB057F30BC05FF300E
:103CB200BD050310B90C3908B400B501B601B7014E
:103CC20018300310B40DB50DB60DB70DFF3E031D30
:103CD200622E3408BA043508BB043608BC0437081F
:103CE200BD0438080319762E772E7C2EB31F7A2E48
:103CF2007B2E7C2EBD173D08B3003C08B2003B086A
:103D0200B1003A08B0000800831203132008A8008B
:103D12002108A9002208AA000310290D2A0DAB00D0
:103D22002B08B1003108031D972E982EA12E0030CA
:103D3200A3000030A2000030A1000030A000412FFB
:103D42002408A8002508A9002608AA000310290DA6
:103D52002A0DAB002B08B0003008031DB12EB22E85
:103D6200B32E982EA117FF30A005FF30A105003019
:103D7200A205A517FF30A405FF30A5050030A60552
:103D82000030AF000030AE000030AD000030AC00BB
:103D92007F30B10298303007A8002808B1021830ED
:103DA200A8002808B0000130A8000310AC0DAD0D2A
:103DB200AE0DAF0DA80BD62E26082202031DE72E4C
:103DC20025082102031DE72E24082002031CEA2EE7
:103DD200EB2EF62E2408A0022508031C250FA102B3
:103DE2002608031C260AA2022C1401300310A00D7F
:103DF200A10DA20DFF3E031DF72E0130B002031DDF
:103E0200032F042FD42EB11F072F082F222F310882
:103E1200803A973E03180E2F0F2F102F982E013045
:103E22000310AF0CAE0CAD0CAC0CFF3E031D112FFA
:103E32000130A8002808B107031D202F212F102FC1
:103E4200392F18303102031C272F282F342F982E98
:103E52000130A8000310AC0DAD0DAE0DAF0DA80BD7
:103E62002B2F0130B1023108031D382F392F292F92
:103E72002F08A3002E08A2002D08A1002C08A000E4
:103E82000800031083120313220D230DA800280833
:103E9200AE002E08031D4E2F4F2F582F0030A300C7
:103EA2000030A2000030A1000030A000FF2F03105C
:103EB200260D270DA8002808AD002D08031D622F2E
:103EC200632F642F4F2FA217FF30A005FF30A105EB
:103ED200FF30A2050030A305A617FF30A405FF306E
:103EE200A505FF30A6050030A7050030AC00003064
:103EF200AB000030AA000030A9007F30AE02A03033
:103F02002D07A8002808AE022030A8002808AD001E
:103F12000130A8000310A90DAA0DAB0DAC0DA80B22
:103F22008B2F27082302031DA02F26082202031D20
:103F3200A02F25082102031DA02F24082002031C04
:103F4200A32FA42FB32F2408A0022508031C250F9A
:103F5200A1022608031C260FA2022708031C270F12
:103F6200A30229140130A8000310A00DA10DA20D77
:103F7200A30DA80BB52F0130AD02031DC12FC22F17
:103F8200892FAE1FC52FC62FE02F2E08803A9F3EE5
:103F92000318CC2FCD2FCE2F4F2F01300310AC0C96
:103FA200AB0CAA0CA90CFF3E031DCF2F0130A800B9
:103FB2002808AE07031DDE2FDF2FCE2FF72F20306C
:103FC2002E02031CE52FE62FF22F4F2F0130A800FF
:103FD2000310A90DAA0DAB0DAC0DA80BE92F0130F2
:103FE200AE022E08031DF62FF72FE72F2C08A30091
:0E3FF2002B08A2002A08A1002908A000080040
:02400E00763FFB
:00000001FF
